:020000040800F2
:10000000F0320120550200085D0200085F0200087E
:100010006102000863020008650200080000000099
:100020000000000000000000000000009D0100082A
:100030006902000800000000F10100087D0B0008C3
:100040006F0200086F0200086F0200086F020008CC
:100050006F0200086F0200086F0200086F020008BC
:100060006F0200086F0200086F0200086F020008AC
:100070006F0200086F0200086F0200086F0200089C
:100080006F0200086F0200086F0200086F0200088C
:100090006F0200086F0200086F0200086F0200087C
:1000A0006F0200086F0200086F0200086F0200086C
:1000B0006F0200086F0200086F0200086F0200085C
:1000C0006F0200086F0200086F0200086F0200084C
:1000D0006F0200086F0200088D0E0008B90E0008BC
:1000E0006F0200086F0200086F0200086F0200082C
:1000F0006F0200086F0200086F0200086F0200081C
:100100006F0200086F0200086F0200086F0200080B
:10011000350E00086F0200086F0200086F02000829
:100120006F0200086F0200086F0200086F020008EB
:100130006F0200086F0200086F0200086F020008DB
:100140006F0200086F0200086F0200086F020008CB
:100150006F0200086F0200086F0200086F020008BB
:100160006F0200086F0200086F0200086F020008AB
:100170006F0200086F0200086F0200086F0200089B
:100180006F0200086F020008DFF80CD000F098F84A
:100190000048004761120008F03201202A4B19681C
:1001A0000868B0E8F04F80F30988BFF36F8F4FF015
:1001B000000080F3118870470000000006480068C6
:1001C000006880F3088862B661B6BFF34F8FBFF353
:1001D0006F8F00DF00BF00BF08ED00E0DFF80C000C
:1001E000016841F470010160704700BF88ED00E0D4
:1001F000EFF30980BFF36F8F134B1A681EF0100FD7
:1002000008BF20ED108A20E9F04F106008B44FF0CD
:10021000500080F31188BFF34F8FBFF36F8F02F050
:100220004DFA4FF0000080F3118808BC1968086887
:10023000B0E8F04F1EF0100F08BFB0EC108A80F34A
:100240000988BFF36F8F70477C000020EFF30580B3
:10025000704700000648804706480047FEE7FEE773
:10026000FEE7FEE7FEE7FEE7FEE7FEE7FEE7FEE766
:10027000010C00088901000840EA01039B0703D034
:1002800009E008C9121F08C0042AFAD203E011F8D5
:10029000013B00F8013B521EF9D27047D2B201E097
:1002A00000F8012B491EFBD270470022F6E710B57B
:1002B00013460A4604461946FFF7F0FF204610BDD4
:1002C000064C074D06E0E06840F0010394E80700A3
:1002D00098471034AC42F6D3FFF75AFFB036000807
:1002E000D036000870B505460C4600260DB1022C2C
:1002F00000D870BDA11E06480288284600F0B2F959
:100300000646A01E2E54310A601E295400BFF0E795
:100310007800002010B54FF4407000F0ADFA00F006
:10032000B5FC00F069FF01F0E3FD01F071FE01F0A2
:1003300027FD10BD00BF14E00A4800680A490860A4
:1003400000F0C8F909488089401C0849888105489F
:10035000006805490968401A0449C862012002F092
:100360007BF8E9E7240C0040200000202801002051
:100370000246094B9A4201D2084801E0064810386B
:1003800001F000531BB1064B0B40C36002E0044B6D
:100390000B40836070470000106402400060024020
:1003A0007D0F7D0F21B1026842F00102026003E07F
:1003B000026822F00102026070470000016821F02B
:1003C000010101600021016041608160C160016143
:1003D000212141614A49884204D13D21484A103ACD
:1003E00091608CE046491831884205D14FF4746120
:1003F000434A103A916082E041493031884205D148
:100400004FF474113E4A103A916078E03C4948310B
:10041000884205D14FF07461394A103A91606EE01C
:1004200037496031884204D13649354A103AD160A3
:1004300065E033497831884204D13349304A103A73
:10044000D1605CE02E499031884204D12F492C4A7A
:10045000103AD16053E02A49A831884205D14FF0C3
:100460003D51274A103AD16049E02949884204D1D8
:100470003D21274A083A116041E025491831884258
:1004800005D14FF47461224A083A116037E02049DF
:100490003031884205D14FF474111D4A083A116079
:1004A0002DE01B494831884205D14FF07461184A4C
:1004B000083A116023E016496031884204D111499D
:1004C000134A121F11601AE011497831884204D191
:1004D0000D490F4A121F116011E00D4990318842F9
:1004E00004D10A490A4A121F116008E00849A831DC
:1004F000884204D14FF03D51054A121F11607047E8
:10050000106002403D000020400F002000003D2010
:1005100010640240014600200A6802F001020AB19C
:10052000012000E00020704710B500220268134B44
:100530001A40CC680B6823434C6923438C692343DE
:10054000CC6923430C6A23434C6A23438C6A2343BC
:100550004C6B23438C6B23431A430260426922F0A5
:100560000702D1E90B3423431A4342610B6943600C
:100570004B6883608B68C36010BD00003F801CF037
:10058000F0B50A4600210023002400BF3DE001250C
:1005900005FA01F3156805EA03049C4234D10568A5
:1005A0004F000326BE40B543056015794E00B540A7
:1005B0000668354305601579012D02D01579022DA5
:1005C00016D185684F000326BE40B5438560557936
:1005D0004E00B540866835438560456801268E40EB
:1005E000B5434560456896798E40B6B2354345605F
:1005F000C5684F000326BE40B543C560D5794E009F
:10060000B540C6683543C560491C1029BFD3F0BD4D
:10061000F0B5002300244D07ED0E02FA05F3CE10CD
:1006200000F1200555F826504E07F70E0F26BE4064
:10063000B543CF1000F1200646F82750CE1000F148
:10064000200555F8265045EA0304CE1000F1200598
:1006500045F82640F0BD0183704742694A40426137
:100660007047000030B5034613B94FF6FF7030BD38
:1006700009E013F8014B82EA0400C0B2054D35F8D9
:10068000100080EA22220800A1F10101F1D11046F8
:10069000EDE70000AE34000810B50B48007855288F
:1006A00011D10948407870B91221074800F074FD53
:1006B00048B1122204490548FFF7DEFD0448808B4B
:1006C000401C0349888310BD94010020660000206F
:1006D0002801002010B5B7EE000A10EE100A1249EA
:1006E000C1F802000220C880032008810F48007C66
:1006F00088720E48407C88720C210B48FFF7F2FD8F
:100700000B490C48FFF734FE00210A48FFF74AFE68
:1007100005480849583948660C20C8650121054834
:10072000FFF740FE10BD000058000020140100201B
:10073000008000185860024010B50F48C07820B102
:100740004FF400610D48FFF788FF0B48007820B197
:100750004FF480410948FFF780FF0748007920B136
:100760004FF400410548FFF778FF4FF4005103486C
:10077000FFF773FF10BD00002400002000100240AE
:1007800000BF15E00B4800680B490860FFF7D4FF75
:100790000A48008A401C0949088206480068064940
:1007A0000968401A054908634FF4FA7001F054FED5
:1007B000E8E70000240C0040180000202801002079
:1007C00000BF15E00B4800680B49086000F04CFAC8
:1007D0000A488088401C0949888006480068064904
:1007E0000968401A054948624FF47A7001F034FEF6
:1007F000E8E70000240C004014000020280100203D
:1008000070B5002100230F22C4781CB3174C246854
:1008100004F4E064C4F5E064C4F30721C1F1040406
:10082000E3B20A4144789C40E1B284781440214309
:100830000C07210E0E4C05786155047804F01F0555
:100840000124AC4005786D11AD0005F1E025C5F837
:10085000004109E0047804F01F050124AC40054D77
:100860000678761145F8264070BD00000CED00E0DA
:1008700000E400E080E100E002490143024A116027
:10088000704700000000FA050CED00E029B1064AAF
:1008900012680243044B1A6004E0034A1268824360
:1008A000014B1A60704700003038024029B1064AF7
:1008B00012680243044B1A6004E0034A1268824340
:1008C000014B1A60704700004038024029B1064AC7
:1008D00012680243044B1A6004E0034A1268824320
:1008E000014B1A60704700002038024029B1064AC7
:1008F00012680243044B1A6004E0034A1268824300
:10090000014B1A607047000024380240F0B5002106
:1009100000220024022500260223324F3F6807F000
:100920000C0121B1042905D0082937D105E02E4F4B
:10093000076036E02D4F076033E02A4F3F1F3F68C6
:10094000C7F38056274F3F1F3F6807F03F036EB144
:10095000264FB7FBF3F7DFF88CC0ACF1040CDCF8E2
:1009600000C0CCF3881C07FB0CF40CE01E4FB7FB57
:10097000F3F7DFF870C0ACF1040CDCF800C0CCF386
:10098000881C07FB0CF4174F3F1F3F68C7F3014754
:100990007F1C7D00B4FBF5F7076002E0124F076093
:1009A00000BF00BF0F4F3F6807F0F0010909104F6B
:1009B0007A5C0768D74047600A4F3F6807F4E05108
:1009C000890A0B4F7A5C4768D7408760054F3F68BC
:1009D00007F46041490B064F7A5C4768D740C7600F
:1009E000F0BD0000083802400024F40000127A0034
:1009F000040100200CB500200190009034480068EC
:100A000040F480303249086000BF3148006800F48B
:100A1000003000900198401C0190009818B901988E
:100A2000B0F5A04FF1D12A48006800F4003010B1B1
:100A30000120009001E0002000900098012846D19C
:100A400023484030006840F0805021494031086020
:100A50002048006840F440401E4908601C480830A7
:100A600000681B49083108600846006840F40040EF
:100A700008600846006840F4A05008601648091F46
:100A80000860081F006840F08070091F086000BF00
:100A90000F48006800F000700028F9D040F205709F
:100AA0000E4908600A480830006820F00300084931
:100AB000083108600846006840F00200086000BF86
:100AC00003480830006800F00C000828F8D10CBD7D
:100AD000003802400070004008544007003C0240CB
:100AE00010B59FED120A10EE100A114908609FED33
:100AF000110A10EE100A48620F491048FFF738FC3F
:100B000000210E48FFF74EFC00BF0C48FFF702FD26
:100B10000028FAD1064809497039C8672C2048676F
:100B200001210648FFF73EFC10BD0000A4709D3F68
:100B30002C00002085EB9140208000207060024056
:100B400000BF14E00A4800680A490860FFF7C8FFC0
:100B500009480089401C0849088105480068054982
:100B60000968401A044988620A2001F075FCE9E727
:100B7000240C00401C0000202801002010B502F0C9
:100B8000BBF9012801D001F07DFE1C48406B4FF4F9
:100B90007A71B0FBF1F201FB1200002828D117484E
:100BA00080881649C88000208880084600894881CE
:100BB0000020088108468089C88100208881084675
:100BC000008A4882002008820846808AC882002065
:100BD00088820846008B4883002008830846808B63
:100BE000C883002088830846008C4884002008843D
:100BF0000248406B401C0149486310BD2801002099
:100C000010B51548006840F4700013490860134897
:100C1000006840F001001149086000200F490831C8
:100C200008600E4800680E4908400C4908600D48ED
:100C3000091D0860081F006820F48020091F086053
:100C4000002006490C310860FFF7D4FE4FF0006029
:100C500001498039086010BD88ED00E0003802408D
:100C6000FFFFF6FE103000240648C08AB0F5FA7F78
:100C700003DA01200449C87002E000200249C8706C
:100C80007047000028010020240000200EB501213B
:100C90000820FFF70BFE5320ADF800004FF0FF30A7
:100CA00001900020ADF80200ADF808006946044844
:100CB00000F014F80121024800F004F80EBD000015
:100CC000000C004021B1028842F00102028004E0E1
:100CD00002884FF6FE731A40028070470022028895
:100CE000184B98420ED0184B98420BD0B0F1804F61
:100CF00008D0164B984205D0154B984202D0154BA0
:100D0000984204D14FF68F731A404B881A43124B06
:100D1000984207D0114B984204D04FF6FF431A4037
:100D20000B891A4302804B68C3620B880385054B0D
:100D3000984202D0044B984201D18B7A038601235A
:100D4000838270470000014000040140000400401D
:100D500000080040000C004000100040001400405B
:100D60001CB501F05FFA00220421102001F0A4FD5F
:100D700016490860164804210023C822CDE9001056
:100D800014A1174802F088F8164803210023C8224E
:100D9000CDE9001014A1184802F07EF8174801218F
:100DA0000023C822CDE9001015A11A4802F074F8FA
:100DB000194802210023C822CDE9001017A11C48C0
:100DC00002F06AF801F058FA1CBD00001000002083
:100DD0000C0000204C45445F5461736B0000000020
:100DE00081070008080000204D6F6E69746F725F04
:100DF0005461736B00000000C10700080000002070
:100E000053746174654461746153656E645F5461C9
:100E1000736B0000410B000804000020436F6D6DF0
:100E2000756E69636174655F5461736B00000000E7
:100E30003503000810B540F22441104800F0F2F8E4
:100E4000012819D10D4800880C48001D0088002198
:100E50000B48FFF7A7FA0A200949403948640846B9
:100E6000006C0849086201210548FFF79BFA064813
:100E7000008C401C0449088410BD0000004C004058
:100E800040600240600100202801002010B540F2BF
:100E90002441074800F0C6F848B1054800880448D6
:100EA000001D00880348808A401C0249888210BDCA
:100EB000004400402801002010B540F224410F48B2
:100EC00000F0B0F8012817D10C4800880B48001D2D
:100ED0000088FFF7E1FB00210948FFF763FA1220C1
:100EE00007492839C86201210548FFF75BFA054820
:100EF000008B401C0349088310BD000000480040DF
:100F0000286002402801002021B1828942F4005269
:100F1000828104E082894DF6FF731A408281704716
:100F20001AB1838A0B43838202E0838A8B438382D4
:100F30007047000010B504463248844208D10121B0
:100F40001020FFF7D3FC00211020FFF7CFFC57E063
:100F50002D48844209D101214804FFF7B7FC002144
:100F60004FF40030FFF7B2FC4AE02848844209D130
:100F700001218804FFF7AAFC00214FF48020FFF72D
:100F8000A5FC3DE02248844209D10121C804FFF7B5
:100F90009DFC00214FF40020FFF798FC30E01D4835
:100FA000844209D101210805FFF790FC00214FF48C
:100FB0008010FFF78BFC23E01748844208D1012101
:100FC0002020FFF793FC00212020FFF78FFC17E083
:100FD0001248844209D101218807FFF777FC0021DC
:100FE0004FF08040FFF772FC0AE00D48844207D1C1
:100FF00001214005FFF76AFC00216005FFF766FC50
:1010000010BD0000001001400044004000480040B6
:10101000004C0040005000400014014000780040A7
:10102000007C004070B5024600240023002500200B
:1010300040F66A16B14200D100BFC1F3421501F07B
:101040001F03012606FA03F3012D02D196893340CE
:1010500006E0022D02D1168A334001E0968A334021
:101060000C12012606FA04F41688344013B10CB1B0
:10107000012000E0002070BDF0B5034600240026EA
:101080000025002040F66A17B94200D100BF18467B
:10109000C1F3421401F01F06012707FA06F5012CDF
:1010A00001D10C3004E0022C01D1103000E01430EA
:1010B0001AB107682F43076002E00768AF43076073
:1010C000F0BD00002DE9FF4705460E460024A1466D
:1010D00000BFA046B08900B100BF2C8A24F4405460
:1010E000F08804432C82AC8941F20C608443B088C0
:1010F00031890843718908430443AC81AC8A24F4E4
:101100004074B0890443AC826846FFF7FFFB204877
:10111000854202D01F48854202D1DDF80C9001E0E3
:10112000DDF80890A88900F4004040B109EBC9003F
:1011300000EB091031684900B0FBF1F707E009EB5B
:10114000C90000EB091031688900B0FBF1F7642099
:10115000B7FBF0F004012009642101FB1078A88995
:1011600000F4004040B1322000EBC800B0FBF1F0C9
:1011700000F00700044308E0322000EB081064216F
:10118000B0FBF1F000F00F0004432C81BDE8FF87B5
:10119000001001400014014070B505460C460026C1
:1011A0000DB1022C01D8002070BDA11E0948028893
:1011B0002846FFF757FA0646F1B2A01E285C814286
:1011C00006D1601E285CB0EB162F01D10120EBE7A1
:1011D0000020E9E77800002002E008C8121F08C1DB
:1011E000002AFAD170477047002001E001C1121FA8
:1011F000002AFBD1704700001CB501211020FFF729
:1012000045FB01208DF8040000208DF806004FF406
:101210007840009001208DF8070003208DF805002C
:1012200069460E48FFF7ACF94FF400610B48FFF731
:1012300012FA4FF480510948FFF70DFA4FF40051AC
:101240000648FFF708FA4FF480410448FFF703FA15
:101250004FF400410148FFF7FEF91CBD00100240A9
:1012600010B5FFF757F8FFF77BFD01F0D5F9002027
:1012700010BD00002DE9F04105460E461C480768E8
:101280001C480068001D00F083FF50B91948006831
:1012900090F82C10012088401749096881431648AE
:1012A0000160681C38B936B112480168091D13483D
:1012B00000F0ACFF1AE07C190E4800684460BC42A4
:1012C00007D20C480168091D0D48006800F084FF32
:1012D0000CE008480168091D0A48006800F07CFF1E
:1012E00009480068844201D207480460BDE8F081E3
:1012F000900000207C00002094000020B00200201C
:101300008400002080000020AC00002010B50446BE
:1013100000F088FF24480068401C234908602348E7
:10132000006840B9214804600846006801280DD1D2
:1013300000F0DEF90AE01E48006838B91B48006872
:10134000C06AE16A884201D81848046019480068F8
:10135000401C1849086008460068206494F82C1066
:101360000120884014490968084313490860E16A6C
:1013700001EB8101114A02EB8100211D00F046FFC3
:1013800000F07AFF0A48006868B108480068C06A3F
:10139000E16A884207D24FF0805009490860BFF3E4
:1013A0004F8FBFF36F8F10BD8C0000207C0000209A
:1013B00098000020A800002094000020FC010020DC
:1013C00004ED00E010B500F02DFF10480068D0B922
:1013D0000F4800F0F1FE0F4800F0EEFE0C480E49F9
:1013E00008600C480D49086000220C210A2001F019
:1013F00063FA064908600846006820B108A103485E
:10140000006800F0EDFF00F037FF10BDC0000020C5
:10141000C4020020D8020020B8000020BC00002038
:10142000546D72510000000070B523E001F03EF9E8
:101430001348006808B9012000E00020054601F0CB
:10144000C5FEBDB900F0EEFE0D48C068C468201DA1
:1014500000F09EFE0B480068401E0A4908600A48DA
:101460000068401E0849086000F006FF204600F0B2
:1014700060F800BF044800680028D7D170BD0000A4
:101480009C0200208C0000208800002070B50446DB
:101490000D46206C70B1216CE0680844E060616822
:1014A000E068884201D32068E0602846226CE16849
:1014B000FEF7E2FE70BD2DE9F04104460F461546E9
:1014C0004FF00008A66B206C40B9206860BB6068D4
:1014D00001F0CCFD80460020606025E07DB93946F2
:1014E000226CA068FEF7C8FE216CA0680844A060CA
:1014F000D4E90110884217D32068A06014E039466F
:10150000226CE068FEF7B8FE216CE068401AE060EB
:101510002168E068884203D2216C6068401AE0606C
:10152000022D01D106B1761E701CA0634046BDE8B5
:10153000F08110B50446206B00F0BCFE204600F0A0
:10154000B9FE10BD0146084A126812680AB90122A4
:1015500000E000220A600A6822B9034A1268D268D1
:10156000106800E000207047B800002030B54FF44C
:101570009633174800F007042CB1C01D20F0070077
:10158000134C041B1B1B0246124C22600024114DFD
:101590006C60D018083820F007000F4C2060002441
:1015A0000D4D2D686C600C4D2D682C601146441A51
:1015B0004C60094C24680C60084D4C682C60084D48
:1015C0004C682C604FF00044064D2C6030BD00008C
:1015D000EC020020CC000020D4000020DC00002021
:1015E000D8000020E000002000BFFFF71DFF0648E4
:1015F00000680128F9D94FF0805004490860BFF312
:101600004F8FBFF36F8FF0E7FC01002004ED00E087
:101610002DE9F04106460D4617469846069C0DB941
:10162000246000E02760E66325640121204601F084
:1016300051FA84F84C80BDE8F0812DE9F05F8246D4
:101640000F4690469B460A9E0C9C4FEA8801A522B5
:10165000206BFEF723FEA8F10100216B01EB80094E
:1016600029F0070909F0070008B9012000E000206F
:1016700050B900BF502080F31188BFF34F8FBFF3E4
:101680006F8F00BF00BFFEE7002507E0795D04F122
:1016900034004155785D00B902E06D1C0A2DF5D388
:1016A00000BF00213D200155052E00D30426E6622F
:1016B000A6640020E064201D00F08BFD04F11800FA
:1016C00000F087FD2461C6F10500A061646200207E
:1016D000206584F854005A465146484600F03AFBCB
:1016E00020600B9808B10B980460BDE8F09F0000E3
:1016F00010B5002407E004EB84010F4A02EB8100DF
:1017000000F05AFD641C052CF5D30C4800F054FD84
:101710000B4800F051FD0B4800F04EFD0A4800F068
:101720004BFD0A4800F048FD044809490860044898
:101730000849086010BD0000FC0100206002002084
:1017400074020020880200209C020020B0020020C9
:10175000800000208400002010B50146164800E0FB
:10176000006803688B42FBD30246436813448B42F4
:1017700004D143684C682344436001460A464B68E1
:1017800013440468A34211D10C4C03682468A3429B
:1017900008D04B680468646823444B6003681B6886
:1017A0000B6005E0054B1B680B6001E003680B60F4
:1017B000884200D0016010BDCC000020D400002081
:1017C0002DE9F04104460D4616461F464FF000082D
:1017D00065602461B5420CD8F01BA169884202D330
:1017E0004FF0010811E0211D0948006800F0F4FCE9
:1017F0000BE0BE4204D2BD4202D34FF0010804E028
:10180000211D0448006800F0E7FC4046BDE8F08177
:10181000BC000020B800002070B5054600F002FDB5
:10182000A86B08B9012400E0002400F025FD204643
:1018300070BD70B5054600F0F5FCA86BE96B8842F9
:1018400001D1012400E0002400F016FD204670BD07
:10185000F8B505460F4616480068C068C468201DE4
:1018600000F096FCE06901281DD1A06941192B46C2
:101870003A462046FFF7A4FFA8B1002003462A46B7
:1018800001460090204601F04FFD064656B900BFC4
:10189000502080F31188BFF34F8FBFF36F8F00BFCD
:1018A00000BFFEE700BF2046616A8847F8BD000020
:1018B000B800002070B586B06AE00398002867DBA6
:1018C000059C606908B9012000E0002010B9201DC6
:1018D00000F05EFC02A800F0BDF8054603980A2857
:1018E00054D2DFE800F009050731334F06083234DF
:1018F00000BF00BF00BF00BF0498A2698118034663
:101900002A462046FFF75CFFE8B12046616A884717
:10191000E069012817D1002000900498A1694218BD
:1019200000231946204601F0FFFC064656B900BFC9
:10193000502080F31188BFF34F8FBFF36F8F00BF2C
:1019400000BFFEE700BF22E000BF20E000BF049818
:10195000A061A06908B1012000E0002050B900BFDB
:10196000502080F31188BFF34F8FBFF36F8F00BFFC
:1019700000BFFEE7A06941192B462A462046FFF723
:101980001FFF04E0204600F095FC00E000BF00BF10
:1019900000231A4603A90448006800F0B9FF002894
:1019A0008BD106B070BD0000C0000020F8B5054620
:1019B0000C4600F07BFE684600F04CF806460098A6
:1019C00020BB44B9B54206D801F000FC3146284698
:1019D000FFF73EFF1CE03CB10E480068006808B904
:1019E000012000E000200446A91B22460A480068A6
:1019F00000F00CFD01F0EAFB50B94FF080500749B0
:101A00000860BFF34F8FBFF36F8F01E001F0DEFB83
:101A1000F8BD0000BC000020C000002004ED00E084
:101A20000A490968096809B9012100E0002121B1CA
:101A30004FF0FF31064A116006E004490968C968A1
:101A4000C868034A416811607047000080000020A8
:101A5000AC00002070B5044601F05EFA0546074868
:101A60000068854204D200F00BF80120206001E0FC
:101A70000020206001480560284670BDC800002095
:101A80002DE9F84332E024480068C0680568224820
:101A90000068C068C468201D00F07AFB2046616AB7
:101AA0008847E069012821D1A0694619AE4207D9CB
:101AB00066602461211D1848006800F08DFB15E068
:101AC000002003462A4601460090204601F02CFCE7
:101AD000074657B900BF502080F31188BFF34F8FDE
:101AE000BFF36F8F00BF00BFFEE700BF0A4800686A
:101AF000006808B9012000E000200028C3D0064893
:101B0000D0F8008005480068034908600348C0F821
:101B10000080BDE8F8830000B8000020BC00002071
:101B20000E480068401C08B9012000E0002050B9B0
:101B300000BF502080F31188BFF34F8FBFF36F8F2A
:101B400000BF00BFFEE700BF502080F31188BFF345
:101B50004F8FBFF36F8F00BF00BFFEE7E400002090
:101B600008B500BF6846FFF7EDFC04462046009923
:101B7000FFF71CFFFFF79EFEF4E770B5044600F088
:101B800051FB94F9455010E0606A08B9012000E06B
:101B9000002038B904F1240001F0CCFA18B100F0AB
:101BA00089FC00E003E0681E45B2002DECDC00BFBC
:101BB000FF2084F8450000F05FFB00F033FB94F950
:101BC000445010E0206908B9012000E0002048B925
:101BD00004F1100001F0AEFA08B100F06BFC681ED1
:101BE00045B200E001E0002DECDC00BFFF2084F8EE
:101BF000440000F041FB70BD2DE9F04104464FF078
:101C0000000800F053FD4648006808B9FFF7AEFC35
:101C100044480068204000286BD1D4B1083404F057
:101C20000700B0B104F00700C0F10800044404F05C
:101C3000070008B9012000E0002050B900BF502083
:101C400080F31188BFF34F8FBFF36F8F00BF00BFCA
:101C5000FEE7002C4DD034480068844249D8334E0A
:101C60003046056801E02E462D686868A04202D221
:101C700028680028F7D12A480068854239D03068A2
:101C800000F10808286830606868001B102819D91E
:101C90002F1907F0070008B9012000E0002050B913
:101CA00000BF502080F31188BFF34F8FBFF36F8FB9
:101CB00000BF00BFFEE76868001B78606C603846B4
:101CC000FFF74AFD184968680968081A164908604C
:101CD0000846006816490968884203D2124800681D
:101CE000134908600F496868096808436860002064
:101CF000286001F06BFA08F0070008B9012000E045
:101D0000002050B900BF502080F31188BFF34F8FDF
:101D1000BFF36F8F00BF00BFFEE74046BDE8F08114
:101D2000D4000020E0000020D8000020CC000020DB
:101D3000DC0000200648006830B10549096801F15F
:101D40004C00C96C491C01600148006870470000E4
:101D50007C000020001F4FF080730360001F21F003
:101D600001030360001F054B036014380260001F6D
:101D70006FF002030360203870470000211B000849
:101D800000B597B001210420FEF780FD0121C804B1
:101D9000FEF78CFD01214805FEF778FD08220A2197
:101DA0004F48FEF735FC08220B214D48FEF730FC6A
:101DB0004FF44060159002208DF858008DF85900BE
:101DC00001208DF85A008DF85B0015A94448FEF7F4
:101DD000D7FB4448FFF7AEF84FF4E13011900020F4
:101DE000ADF84800ADF84A00ADF84C00ADF8500031
:101DF0000C20ADF84E0011A93A48FFF763F93420E2
:101E00008DF8400001208DF8410000208DF842003F
:101E100001208DF8430010A8FEF7F2FC3148001DA8
:101E2000029031480390002004900A200590002081
:101E300006904FF4806007900020089009900A9067
:101E40004FF440300B9000200C900D900E900F90AE
:101E500001A92648FEF768FB24483030FEF7AEFAA9
:101E60004FF0006001901F48001D02900020039079
:101E7000402004900020059006904FF48060079069
:101E80000020089009900A904FF440300B900020F9
:101E90000C900D900E900F9001A914483030FEF771
:101EA00043FB012240F224410E48FFF7E5F80122EE
:101EB00040210C48FFF734F8012280210948FFF740
:101EC0002FF801210748FFF71FF801210748FEF707
:101ED00069FA002105483030FEF764FA17B000BDFA
:101EE00000080240004C0040A60100204060024073
:101EF00000B597B001214248FEF7C8FC0121480413
:101F0000FEF7D4FC072205213E48FEF781FB07229D
:101F100006213C48FEF77CFB6020159002208DF8DE
:101F2000580000208DF85A0003208DF85900002039
:101F30008DF85B0015A93348FEF722FB4FF4E13022
:101F400011900020ADF84800ADF84A00ADF84C0003
:101F50000C20ADF84E000020ADF8500011A92A4821
:101F6000FFF7B0F826208DF8400005208DF84100DD
:101F700000208DF8420001208DF8430010A8FEF7E4
:101F80003FFC2248FEF71AFA00BF2048FEF7C2FACB
:101F90000128FAD04FF0006001901B48001D02900C
:101FA00000200390402004900020059006904FF4FC
:101FB000806007900020089009900A904FF440300C
:101FC0000B9000200C900D900E900F9001A90F48DF
:101FD000FEF7AAFA01210C48FEF796FF012240F213
:101FE00024410948FFF748F8012280210648FEF7FE
:101FF00097FF01210548FEF7D5F917B000BD000095
:1020000008002000000C024000440040A060024094
:1020100000B597B001210820FEF738FC01218804A3
:10202000FEF744FC01214805FEF730FC0722082199
:102030005348FEF7EDFA072209215148FEF7E8FA66
:102040004FF44070159002208DF858008DF859001B
:1020500001208DF85A008DF85B0015A94848FEF75D
:102060008FFA4848FEF766FF4FF4E12011900020F8
:10207000ADF84800ADF84A00ADF84C00ADF850009E
:102080000C20ADF84E0011A93E48FFF71BF82720A1
:102090008DF8400005208DF8410000208DF84200A9
:1020A00001208DF8430010A8FEF7AAFB3648FEF782
:1020B00085F94FF0006001903248001D02903348CE
:1020C00003900020049012200590002006904FF409
:1020D000806007900020089009904FF480700A906B
:1020E0004FF440300B9000200C900D900E900F900C
:1020F00001A92548FEF718FA23483030FEF75EF9AB
:102100004FF0006001901F48001D029000200390D6
:10211000402004900020059006904FF480600790C6
:102120000020089009900A904FF440300B90002056
:102130000C900D900E900F9001A913483030FEF7CF
:10214000F3F901210F48FEF7DFFE012240F224419E
:102150000C48FEF791FF012240210A48FEF7E0FEFD
:10216000012280210748FEF7DBFE01210648FEF729
:1021700019F9002104483030FEF714F917B000BDFA
:10218000000C0240004800402860024094010020FA
:1021900001460A69D1E901309860D1E9010358602C
:1021A0005068884201D1886850600020086110683A
:1021B000401E10601068704700F1080141604FF048
:1021C000FF31816000F10801C160016100210160FF
:1021D000704700210161704710B502460B685C1C16
:1021E0000CB9106907E002F1080000E0406844689B
:1021F00024689C42FAD944684C604C68A1608860AD
:1022000041600A611468641C146010BD42684A6031
:1022100093688B60936859609160086103685B1CE8
:102220000360704700BF502080F31188BFF34F8FC9
:10223000BFF36F8F00BF0E480068401C0C49086058
:1022400008460068012812D10A480068C0B208B9DF
:10225000012000E0002050B900BF502080F3118819
:10226000BFF34F8FBFF36F8F00BF00BFFEE7704714
:10227000E400002004ED00E00D48006850B900BF04
:10228000502080F31188BFF34F8FBFF36F8F00BFD3
:1022900000BFFEE706480068401E05490860084682
:1022A000006820B9002080F3118800BF00BF70478C
:1022B000E400002070B506463546002E3FD0083DAC
:1022C0002C461F4960680968084008B1012000E0F9
:1022D000002050B900BF502080F31188BFF34F8F0A
:1022E000BFF36F8F00BF00BFFEE7206808B9012071
:1022F00000E0002050B900BF502080F31188BFF3E8
:102300004F8FBFF36F8F00BF00BFFEE70C496068BF
:102310000968084098B1206888B909496068096867
:102320008843606000F0C2F90649606809680844A3
:10233000044908602046FFF70FFA00F047FF70BD20
:10234000E0000020D8000020064800684FF47A71B1
:10235000B0FBF1F0401E4FF0E0214861072008611A
:1023600070470000F000002070B5FDF76FFF0446D5
:10237000102C16D304F1E02090F8F05315480078A3
:10238000854201DB012000E0002050B900BF502051
:1023900080F31188BFF34F8FBFF36F8F00BF00BF73
:1023A000FEE70D48006800F4E0600C4909688842C7
:1023B00001D8012000E0002050B900BF502080F378
:1023C0001188BFF34F8FBFF36F8F00BF00BFFEE7D1
:1023D00070BD0000E80000200CED00E0EC000020E3
:1023E000024600200BE0084B53F8303033B9064B5F
:1023F00043F8301003EBC0035A6002E0401C082889
:10240000F1D300BF70470000BC0100202DE9F0416E
:1024100005460E4617462C46FFF704FF94F9440084
:10242000401C10B9002084F8440094F94500401C79
:1024300010B9002084F84500FFF71EFFA06B28B9F3
:102440003A46314604F1240000F056F82046FFF7E2
:1024500094FBBDE8F081000070B504460025D4B1BE
:102460001248006808B9012000E0002050B900BF00
:10247000502080F31188BFF34F8FBFF36F8F00BFE1
:1024800000BFFEE700F012F900212046FEF7F2FE41
:1024900000F09CFE05463DB94FF0805004490860AD
:1024A000BFF34F8FBFF36F8F70BD0000B4000020EB
:1024B00004ED00E00120014908607047A000002001
:1024C00070B504460D4654B900BF502080F3118802
:1024D000BFF34F8FBFF36F8F00BF00BFFEE705480C
:1024E000016818312046FFF777FE01212846FEF7E4
:1024F000C1FE70BD7C00002070B505460E46144636
:1025000055B900BF502080F31188BFF34F8FBFF340
:102510006F8F00BF00BFFEE70648016818312846EC
:10252000FFF774FE0CB14FF0FF3621463046FEF740
:10253000A1FE70BD7C00002070B505462C46002D24
:102540004BD02649E06A0968C96A884245D2A06929
:1025500000F0004028B921480068C06AC0F10500B9
:10256000A061E16A01EB81011D4A02EB8101606912
:10257000884201D1012000E0002050B3201DFFF768
:1025800007FE78B9E06A00EB8000154951F8200099
:1025900040B994F82C100120884012490968814301
:1025A000104801600D480068C06AE06294F82C1081
:1025B000012088400B49096808430A490860E16A1C
:1025C00001EB8101064A02EB8100211DFFF71EFE8F
:1025D00003E002480068C06AE06270BD7C00002031
:1025E000FC0100209400002050B900BF502181F36D
:1025F0001188BFF34F8FBFF36F8F00BF00BFFEE79F
:102600000349096801600349096841607047000097
:10261000A4000020900000201CB51D4800210B469E
:102620008222CDE900101BA11C4800F035FC0446B5
:10263000012C02D100F04CFE0446012C15D100BF44
:10264000502080F31188BFF34F8FBFF36F8F00BF0F
:102650004FF0FF3012490860012012490860002045
:102660001149086000F070F810E0601C08B101200A
:1026700000E0002050B900BF502080F31188BFF364
:102680004F8FBFF36F8F00BF00BFFEE71CBD000080
:10269000B000002049444C4500000000E915000846
:1026A000AC00002098000020900000200248006844
:1026B000401C014908607047B40000201D480068B4
:1026C00018B101201C49086032E000201A49086056
:1026D0001A480068B0FA80F0C0F11F0101EB8100D8
:1026E000174A52F8200008B1012000E0002050B93C
:1026F00000BF502080F31188BFF34F8FBFF36F8F5F
:1027000000BF00BFFEE701EB81020D4B03EB82002F
:1027100042685268426000F108024368934202D165
:102720004268526842604268D268064B1A6000BF35
:1027300070470000B4000020A0000020940000209A
:10274000FC0100207C0000201CB547480068474978
:10275000884201D0012000E0002050B900BF502085
:1027600080F31188BFF34F8FBFF36F8F00BF00BF9F
:10277000FEE73D4800683D49491E884201D00120DE
:1027800000E0002050B900BF502080F31188BFF353
:102790004F8FBFF36F8F00BF00BFFEE7344908467D
:1027A00000780190FF200A461070084600780090DB
:1027B0009DF8000000F0F0009DF80020904201D14B
:1027C000012000E0002050B900BF502080F31188A4
:1027D000BFF34F8FBFF36F8F00BF00BFFEE79DF8C1
:1027E000000000F05000234A10700720224A1060B9
:1027F00009E021480068401E1F4A10609DF8000053
:102800004006000E00909DF8000000F08000802837
:10281000EFD0194800680002174A1060104600887F
:1028200000F4E0601060124A019810700E482030E9
:10283000006840F470000C492031086008460068C8
:1028400040F070400860FFF77FFD00200B490860F2
:10285000FDF7C4FC0A48006840F0404008490860A1
:10286000FDF7ACFC00201CBD00ED00E071C20F4183
:1028700000E400E0E8000020EC000020E40000207C
:1028800034EF00E010B500BF502080F31188BFF393
:102890004F8FBFF36F8F00BF00F044FB18B14FF0B4
:1028A00080500449086000BF002080F3118800BFF9
:1028B00010BD000004ED00E02DE9F84305460E468A
:1028C00090460DB1012000E0002050B900BF50201B
:1028D00080F31188BFF34F8FBFF36F8F00BF00BF2E
:1028E000FEE70EB9002701E005FB06F707F15000EF
:1028F000FFF782F9044644B104F1500943464A46C1
:10290000314628460094FEF783FE2046BDE8F88352
:102910002DE9FF4782B005460E461F464FF0000ADC
:102920002C4654B900BF502080F31188BFF34F8F5D
:10293000BFF36F8F00BF00BFFEE70EB9206C08B970
:10294000012000E0002050B900BF502080F3118822
:10295000BFF34F8FBFF36F8F00BF00BFFEE700F0E4
:10296000CBFA08B9049808B9012000E0002050B95A
:1029700000BF502080F31188BFF34F8FBFF36F8FDC
:1029800000BF00BFFEE700BFFFF74CFCD4F8389053
:10299000B9F1000F3DD0D4F80C8031462046FEF747
:1029A00075FDDFB9A9F10100A063206810B9FFF738
:1029B000C1F96060206908B9012000E0002010BB67
:1029C00004F1100000F0B6FBE8B14FF08050404930
:1029D0000860BFF34F8FBFF36F8F14E0C4F80C8013
:1029E000606A08B9012000E0002060B904F1240009
:1029F00000F0A0FB38B14FF0805035490860BFF3BC
:102A00004F8FBFF36F8FFFF737FC012006B0BDE893
:102A1000F087049818B9FFF72FFC0020F6E7BAF109
:102A2000000F04D16846FFF7DFFD4FF0010AFFF702
:102A300023FCFFF73BFEFFF7F5FB94F94400401C35
:102A400010B9002084F8440094F94500401C10B9E6
:102A5000002084F84500FFF70FFC04A9684600F049
:102A6000D5F940BB2046FEF7D7FEF0B1206830B95B
:102A7000FFF7D8FB6068FFF75FFDFFF7FDFB04F190
:102A800024000499FFF71CFD2046FFF776F800F0BC
:102A90009DFB00287FF478AF4FF080500C49086010
:102AA000BFF34F8FBFF36F8F6EE72046FFF765F8D8
:102AB00000F08CFB68E72046FFF75FF800F086FB2C
:102AC0002046FEF7A9FE0028EED000209EE7000079
:102AD00004ED00E070B505460E462C4654B900BF23
:102AE000502080F31188BFF34F8FBFF36F8F00BF6B
:102AF00000BFFEE7FFF796FBD4E90F12206801FB49
:102B0000020060600020A0632068A060E06B401EAF
:102B1000226C216800FB0210E060FF2084F8440072
:102B200084F845009EB9206908B9012000E0002022
:102B3000A8B904F1100000F0FDFA80B14FF0805008
:102B400009490860BFF34F8FBFF36F8F07E004F1AF
:102B50001000FFF731FB04F12400FFF72DFBFFF716
:102B60008BFB012070BD000004ED00E02DE9FF4368
:102B700083B0064688461D464FF00009344654B9D6
:102B800000BF502080F31188BFF34F8FBFF36F8FCA
:102B900000BF00BFFEE7B8F1000F01D1206C08B9FB
:102BA000012000E0002050B900BF502080F31188C0
:102BB000BFF34F8FBFF36F8F00BF00BFFEE7022D43
:102BC00002D1E06B012801D1012000E0002050B9C2
:102BD00000BF502080F31188BFF34F8FBFF36F8F7A
:102BE00000BF00BFFEE700F087F908B9059808B9F3
:102BF000012000E0002050B900BF502080F3118870
:102C0000BFF34F8FBFF36F8F00BF00BFFEE700BF62
:102C1000FFF708FBA06BE16B884201D3022D28D19E
:102C20002A4641462046FEF746FC0746606A08B938
:102C3000012000E0002068B904F1240000F07AFAD5
:102C400088B14FF0805032490860BFF34F8FBFF317
:102C50006F8F08E03FB14FF080502D490860BFF3FF
:102C60004F8FBFF36F8FFFF707FB012007B0BDE861
:102C7000F083059818B9FFF7FFFA0020F6E7B9F1DD
:102C8000000F04D101A8FFF7AFFC4FF00109FFF7D7
:102C9000F3FAFFF70BFDFFF7C5FA94F94400401C67
:102CA00010B9002084F8440094F94500401C10B984
:102CB000002084F84500FFF7DFFA05A901A800F01D
:102CC000A5F8F0B92046FEF7B4FDA0B104F110005C
:102CD0000599FFF7F5FB2046FEF74FFF00F076FA67
:102CE000002895D14FF0805009490860BFF34F8FFD
:102CF000BFF36F8F8CE72046FEF73FFF00F066FAC8
:102D000086E72046FEF739FF00F060FA0020ADE7C5
:102D100004ED00E02DE9F05F07468A4690461E4626
:102D20003C4654B900BF502080F31188BFF34F8F49
:102D3000BFF36F8F00BF00BFFEE7BAF1000F01D1F4
:102D4000206C08B9012000E0002050B900BF5020DD
:102D500080F31188BFF34F8FBFF36F8F00BF00BFA9
:102D6000FEE7022E02D1E06B012801D1012000E034
:102D7000002050B900BF502080F31188BFF34F8F5F
:102D8000BFF36F8F00BF00BFFEE7FFF7EDFA00BF94
:102D90005021EFF3118081F31188BFF34F8FBFF300
:102DA0006F8F00BF0546A06BE16B884201D3022EF6
:102DB00023D194F945B0324651462046FEF77BFBBD
:102DC0000BF1010088B9606A08B9012000E0002019
:102DD00080B904F1240000F0ADF958B1B8F1000F4A
:102DE00008D00120C8F8000004E00BF1010040B257
:102DF00084F845004FF0010901E04FF0000900BFE1
:102E000085F3118800BF4846BDE8F09F70B50446C1
:102E10000D4654B900BF502080F31188BFF34F8F87
:102E2000BFF36F8F00BF00BFFEE755B900BF502052
:102E300080F31188BFF34F8FBFF36F8F00BF00BFC8
:102E4000FEE7FFF7EFF9124803682868401C08B94D
:102E5000002619E00F4920680968884204D060689C
:102E6000984201D801260FE06068181A2968884244
:102E700009D228686168591A401A28602046FFF76D
:102E8000B3FB002600E00126FFF7F6F9304670BDDF
:102E900090000020A40000202DE9FF4F85B080465F
:102EA00089461746DDE912ABB800FEF7A5FE0646D7
:102EB00056B15820FEF7A0FE04460CB1266304E08C
:102EC0003046FFF7F7F900E000247CB10020CDE99F
:102ED00000ABCDE902403A4649464046089BFEF722
:102EE000ACFB2046FEF712FA012501E04FF0FF355A
:102EF000284609B0BDE8F08F0549096809B90120E5
:102F000005E00449096809B9022000E00020704783
:102F100098000020B40000200149086870470000B4
:102F2000900000202DE9F0414FF00008444800686F
:102F3000002877D143480068451C4248056015BB0E
:102F400041480068006808B9012000E0002050B93D
:102F500000BF502080F31188BFF34F8FBFF36F8FF6
:102F600000BF00BFFEE738480768384800683649A8
:102F700008603648076036480068401C34490860DD
:102F8000FEF74EFD00BF3348006885423CD300BFCA
:102F90002D480068006808B9012000E0002020B139
:102FA0004FF0FF302B4908602DE027480068C068CB
:102FB000C4686668B54202D22648066023E0201D38
:102FC000FFF7E6F8A06A18B104F11800FFF7E0F87F
:102FD00094F82C10012088401F49096808431E49B5
:102FE0000860E16A01EB81011C4A02EB8100211DAE
:102FF000FFF70CF91A49E06A0968C96A8842C7D321
:103000004FF00108C4E700BF15480068C06A00EB34
:103010008000124951F82000012801D94FF0010821
:1030200005E0FFE70F480068401C0E4908600E48A5
:10303000006808B14FF001084046BDE8F08100008B
:10304000B4000020900000208000002084000020B8
:10305000A4000020AC00002094000020FC0100200F
:103060007C0000209C000020A000002070B50546D8
:103070002C460026002D55D02B480068844201D1F3
:10308000012000E0002050B900BF502080F31188DB
:10309000BFF34F8FBFF36F8F00BF00BFFEE7E06C41
:1030A00050B900BF502080F31188BFF34F8FBFF39A
:1030B0006F8F00BF00BFFEE7E06C401EE064A16CB4
:1030C000E06A88422ED0E06C60BB201DFFF760F8FC
:1030D00078B9E06A00EB8000144951F8200040B94B
:1030E00094F82C1001208840114909688143104848
:1030F0000160A06CE062E06AC0F10500A06194F894
:103100002C10012088400A490968084308490860D2
:10311000E16A01EB8101054A02EB8100211DFFF705
:1031200075F80126304670BD7C000020FC010020AF
:103130009400002070B50646F068C46854B900BF1A
:10314000502080F31188BFF34F8FBFF36F8F00BF04
:1031500000BFFEE704F11800FFF71AF815480068F1
:10316000A8B9201DFFF714F894F82C10012088400E
:1031700011490968084310490860E16A01EB8101BF
:103180000E4A02EB8100211DFFF740F804E004F134
:1031900018010B48FFF73AF80A49E06A0968C96A5A
:1031A000884204D9012501200749086000E0002574
:1031B000284670BDB400002094000020FC010020CF
:1031C000880200207C000020A000002070B50024B0
:1031D00000263648006850B900BF502080F311889F
:1031E000BFF34F8FBFF36F8F00BF00BFFEE7FFF746
:1031F00019F82E480068401E2C49086008460068EF
:1032000000284FD12A48006800284BD024E02948E4
:10321000C068C46804F11800FEF7BAFF201DFEF76D
:10322000B7FF94F82C10012088402349096808430F
:1032300021490860E16A01EB8101204A02EB81002B
:10324000211DFEF7E3FF1E49E06A0968C96A88424A
:1032500002D301201B4908601648006808B9012004
:1032600000E000200028D2D00CB1FEF7D9FB1648B0
:10327000056865B100BFFFF755FE10B10120114987
:1032800008606D1E002DF6D100200F4908600D4822
:10329000006838B1012630070C490860BFF34F8F32
:1032A000BFF36F8FFEF7E8FF304670BDB40000201B
:1032B0008C0000208802002094000020FC010020E7
:1032C0007C000020A00000209C00002004ED00E015
:1032D0001CB50024FEF776F80E48006858B10E4879
:1032E000022100234FF48272CDE900100BA10D489A
:1032F000FFF7D2FD044654B900BF502080F3118877
:10330000BFF34F8FBFF36F8F00BF00BFFEE72046B4
:103310001CBD0000C0000020C4000020546D7220BD
:1033200053766300611B00082DE9FE4304460D46F9
:1033300016461F46DDF828804FF0000954B900BF3B
:10334000502080F31188BFF34F8FBFF36F8F00BF02
:1033500000BFFEE71448006810B300950196029480
:10336000062D15DAFFF7C8FD022808D100234246D2
:1033700069460D480068FFF7F9FB814610E000231D
:103380001A46694608480068FFF7F0FB814607E0E7
:1033900000233A46694604480068FFF7BBFC8146B3
:1033A0004846BDE8FE830000C0000020FF005EBC70
:1033B000E2613FDD83C29C7E20A3FD1F419DC321AE
:1033C0007FFCA2401E5F01E3BD3E6082DC237D9F47
:1033D000C1421CFEA0E1BF5D0380DE3C62BEE00294
:1033E0005CDF81633D7C22C09E1D43A1FF4618FA2D
:1033F000A427799BC584DA3866E5BB5907DB856766
:1034000039BAE406581947A5FB7826C49A653BD912
:1034100087045AB8E6A7F91B45C6987A24F8A6444B
:103420001A99C7257B3A6486D85B05E7B98CD230F8
:103430006EEDB3510F4E10F2AC2F7193CD114FAD15
:10344000F3702ECC92D38D6F31B2EC0E50AFF113DE
:103450004DCE90722C6D33D18F0C52B0EE326C8EFB
:10346000D0530DEFB1F0AE4C1291CF2D73CA9476BC
:1034700028ABF517490856B4EA6937D58B5709EBDD
:10348000B536688AD495CB2977F4AA4816E9B7559A
:103490000B88D6346A2B7597C94A14F6A8742AC8C3
:1034A00096154BA9F7B6E80A54D7896B350000008A
:1034B000891112239B322446AD573665BF74488C60
:1034C000C19D5AAFD3BE6CCAE5DB7EE9F7F8811027
:1034D000080193331A22A5562C47B7753E64C99C40
:1034E000408DDBBF52AEEDDA64CBFFF976E8022106
:1034F0008B30100299132667AF763444BD554AAD20
:10350000C3BC588ED19F6EEBE7FA7CC8F5D98331E6
:103510000A2091121803A7772E66B5543C45CBBDFF
:1035200042ACD99E508FEFFB66EAFDD874C90442C5
:103530008D5316619F702004A9153227BB364CCEDF
:10354000C5DF5EEDD7FC6888E1997AABF3BA8552A6
:103550000C4397711E60A1142805B3373A26CDDEBF
:1035600044CFDFFD56ECE9986089FBBB72AA066385
:103570008F7214409D512225AB343006B9174EEF9F
:10358000C7FE5CCCD5DD6AA9E3B8788AF19B877366
:103590000E6295501C41A3352A24B1163807CFFF7F
:1035A00046EEDDDC54CDEBB962A8F99A708B088445
:1035B00081951AA793B62CC2A5D33EE1B7F0400877
:1035C000C919522BDB3A644EED5F766DFF7C89940E
:1035D00000859BB712A6ADD224C3BFF136E0C11857
:1035E0004809D33B5A2AE55E6C4FF77D7E6C0AA5ED
:1035F00083B4188691972EE3A7F23CC0B5D1422937
:10360000CB38500AD91B666FEF7E744CFD5D8BB5CD
:1036100002A499961087AFF326E2BDD034C1C33916
:103620004A28D11A580BE77F6E6EF55C7C4D0CC6AC
:1036300085D71EE597F42880A1913AA3B3B2444AF6
:10364000CD5B5669DF78600CE91D722FFB3E8DD68D
:1036500004C79FF516E4A9902081BBB332A2C55AD6
:103660004C4BD7795E68E11C680DF33F7A2E0EE76C
:1036700087F61CC495D52AA1A3B03882B193466BB6
:10368000CF7A5448DD59622DEB3C700EF91F8FF74D
:1036900006E69DD414C5ABB122A0B9923083C77B96
:1036A0004E6AD5585C49E33D6A2CF11E780F000044
:1036B000D03600080000002014010000D8110008D6
:1036C000E437000814010020DC310100E811000893
:1036D00000000000000000000000000000000000EA
:1036E00000000000000000000000000000000000DA
:1036F00000000000000000000000000000000000CA
:1037000000000000000000000000000000000000B9
:1037100000000000000000000000000000000000A9
:10372000000000000000807F550000000000000045
:103730000000000000000000000000000000000089
:103740000000000000000000FFFF0000000000007B
:103750000000000000000000000000000000000069
:103760000000000000000000000000000000000059
:103770000000000000000000000000000000000049
:103780000000000000000000000000000000000039
:103790000000000000000000000000000000000029
:1037A0000000000000000000000000000000000019
:1037B00000000000AAAAAAAA000000000000000061
:1037C000007A030A00000000000000000102030468
:1037D00006070809000000000102030401020304B7
:0437E00006070809C7
:040000050800018965
:00000001FF
